:020000040800F2
:100000000000012029730008517300085173000893
:10001000517300085173000851730008000000007C
:100020000000000000000000000000005173000804
:10003000517300080000000051730008517300085C
:100040005173000851730008517300085173000880
:100050005173000851730008517300085173000870
:100060005173000851730008517300085173000860
:100070005173000851730008517300085173000850
:100080005173000851730008517300085173000840
:100090005173000851730008517300085173000830
:1000A0005173000851730008517300085173000820
:1000B0002D5A00085173000851730008517300084D
:1000C0005173000851730008517300085173000800
:1000D0005173000861030020517300085173000838
:1000E00051730008517300085173000800000000AC
:1000F0000000000000000000000000000000000000
:100100000000000000000000517300085173000857
:1001100051730008517300085173000851730008AF
:10012000517300085173000851730008517300089F
:100130005173000800000000000000005173000827
:10014000517300085173000851730008517300087F
:10015000000000000000000000000000000000009F
:10016000000000000000000000000000000000008F
:10017000000000000000000000000000000000007F
:10018000000000000000000000000000000000006F
:10019000000000000000000000000000000000005F
:1001A000000000000000000000000000000000004F
:1001B000000000000000000000000000000000003F
:1001C000000000000000000000000000000000002F
:1001D000000000000000000000000000000000001F
:1001E0005FF8E0F108B50548054B1B1A062B00D84F
:1001F00008BD044B002BFBD09847F9E75C090020B1
:100200005F0900200000000008B50748074B1B1AD3
:100210009B1003EBD373591000D108BD044A002A88
:10022000FBD09047F9E700BF5C0900205C09002083
:100230000000000010B5064C237843B9FFF7D2FF49
:10024000044B13B10448AFF300800123237010BDA9
:100250005C09002000000000D0BE000808B5074B74
:100260001BB107480749AFF300800748036813B183
:10027000064B03B19847BDE80840C5E70000000001
:10028000D0BE0008600900205809002000000000CE
:10029000134B002B08BF114B9D46A3F5803A00215C
:1002A0008B460F461148124A121A07F0CBFC0D4B31
:1002B000002B00D098470C4B002B00D09847002013
:1002C000002104000D000B4807F055FC07F084FCEA
:1002D0002000290000F010F807F054FC000008008E
:1002E0000000012000000000000000005C09002068
:1002F00094AC0020AD7B0008C44E2DE98048B36962
:1003000040F2712243F48043B361C14BA5B09A60BF
:1003100042F22C02DA60BF4B20225A60BE4B996831
:100320005A68914200F0CE8519689A680139501CCC
:10033000BA4D0A40986013441B7B95F80011DBB25C
:100340002F46002940F0FB80E02B40F0F1802B701D
:10035000012385F8003185F80111DFE7481C95F885
:100360000121C0B282426B5485F80001D6D1AB782E
:10037000132B00F0078400F20781042B00F0E482C5
:1003800000F2F180012B4FF0000440F0E2808DF884
:100390002E30A34BE021A34A1B788DF82C100B21A3
:1003A000C2F824438DF82D108DF82F4013B1012190
:1003B0008DF82F109C490C782CB19DF82F1041F02E
:1003C00002018DF82F10DFF8A08298F8001029B1F3
:1003D0009DF82F1041F004018DF82F10934F3978BC
:1003E00029B19DF82F1041F008018DF82F10904D84
:1003F000297829B19DF82F1041F010018DF82F10A8
:100400008C49B2F81EC3097800208DF830108A4953
:10041000B2F820E30978A2F81E038DF83110A2F893
:100420002003BCF1000F03D041F002018DF8311020
:10043000517D0020507529B19DF8311041F0040123
:100440008DF8311092F82910002082F8290029B186
:100450009DF8311041F008018DF8311092F82823F1
:100460002AB19DF8312042F010028DF83120BEF102
:10047000000F05D09DF8312042F020028DF8312088
:100480006E499DF83120097800290CBF00214021D8
:100490000A438DF83120002B00F09C80684806F05C
:1004A000B2FA0D23B0FBF3F08DF83200002C00F00F
:1004B0009E80644B1B78002B00F08F80624806F012
:1004C000A2FA2324B0FBF4F08DF833005F4806F065
:1004D0009AFAB0FBF4F08DF8340098F80030002B55
:1004E00000F08A805A4806F08EFA7823B0FBF3F0C9
:1004F0008DF835003B78002B00F08180554806F0E0
:1005000082FAD823B0FBF3F08DF836002B78002B5D
:1005100078D0514806F077FA3023B0FBF3F08DF82D
:1005200037004E4B0BA80C2198474D4B00221A6008
:100530003A4B002283F8002183F80121EEE60129DD
:100540007FF40CAF6B7085F80131022385F8003120
:10055000E4E6C0F08B80022B00F0A580032B00F0B6
:10056000B38100F08EBC0A2B00F0748204D8082BF3
:1005700000F0D68100F085BC102B00F0D682112B44
:1005800000F0EB8200F07DBC1E2B00F0DF8310D862
:100590001A2B00F03D8304D8182B00F0038300F0E1
:1005A00070BC1C2B00F0C0831D2B00F07F8300F07B
:1005B00068BC302B00F00F8404D8202B00F0E683B9
:1005C00000F05FBC312B00F02884402B00F03D840C
:1005D00000F057BC8DF8323068E70A2321488DF8C7
:1005E000333006F010FA2323B0FBF3F073E78DF8F5
:1005F00033408DF8344070E78DF835307AE78DF868
:10060000363083E78DF837308BE700BF00100240AB
:100610000038014000E100E0DC00002068630020B9
:10062000C2020020CCA30020F6020020F402002029
:10063000F7020020A8090020AA090020A90900202B
:10064000803E0020F5020020406A0020506A002011
:10065000D49E00202C6B002088640020F90200202A
:1006600018002742FCA60020E8010020E0238DF8B6
:100670002C3001238DF82F308DF82E400023B64802
:10068000DAB2845C191DC9B2013324B124A8014433
:1006900001F8644CF3E7B14B0BA88DF82D10984787
:1006A000AF4B1C6044E702390F2940F23781EC78E8
:1006B0006A79C4F30013322A85F80231297900F2ED
:1006C0002D81A84B01F0010A9B79C1F3400C052B49
:1006D000C1F3800EC1F3C000C1F3001109D9A3F129
:1006E0006207012F1AD9A3F15B07052F00F21681CB
:1006F00014E0012B04D1BAF1000F00F00F8118E0D3
:10070000022B04D1BCF1000F00F0088111E0032B93
:1007100004D1BEF1000F00F001810AE0042B03D1E7
:10072000002800F0FB8004E0052B02D1002900F036
:10073000F580EE796D7ADFF82C920F2D009600F29D
:10074000ED8099F80C6099F80880029699F80E608F
:10075000CDF804800496844E99F80D803370834B55
:10076000CDF80C8083F800A0814BDFF854A283F809
:1007700000C0804B99F80F8083F800E07E4B99F819
:100780000A7018707D4B7E4819707E4BE143C1F3AF
:10079000C011197002EB42014B0003F59673A0F8EB
:1007A000A0328900784801F51671A0F87415AAF8EE
:1007B000F0140C214A43754902F51672C1F8F02471
:1007C000734A284699F810B0A2F88835CDF81480FD
:1007D00099F8118099F8129003F078F86D4B6E4AF1
:1007E00083F84357A3F844776C4B019E1F806C4BF2
:1007F000157083F8775B6B4BC4F3800283F84C551C
:10080000C4F3C0038AF8F234674B009F83F80423D3
:10081000F201049EF901F001029F059EA3F808234E
:10082000039AFD01D701F201E607A3F8061348BFBA
:1008300049424FEAC91908F5F0680BF5F06E48BF58
:10084000A3F80613A107A3F80A53A3F80C73A3F89F
:100850000E03A3F81023A3F81293A3F81483A3F8AC
:1008600016E30FD56D427F4240425242C9F1000962
:10087000A3F80A53A3F80C73A3F80E03A3F81023EC
:10088000A3F81293197800295ED1484F4FF4C04263
:10089000FB69474843F00103FB614FF080439A60D6
:1008A0007C2299624FF08054DA620122DA6004609F
:1008B0001868104318603F4B196043F8042C3A4BFA
:1008C0001A7005F0BBFC3FE0032827D0264BE878E0
:1008D0001B78834238D0052808D9A0F16203012B88
:1008E00010D9A0F15B03052B18D80BE0012801D12A
:1008F0001E4B0EE0022801D11D4B0AE0032801D156
:100900001C4B06E0042801D11B4B02E0052802D154
:100910001A4B1B7813B103F035FC15E0042078E284
:10092000114B1B78632B4DD1042840F08C80ED785F
:10093000214C6F1E7D427D41237845B11BB91F4874
:10094000638002F037F8257001F04CFBF0E5002BD6
:10095000F9D002F019F8F6E7CF800008F90200207C
:100960001800274268630020A8090020C202002066
:10097000F6020020E8010020F4020020F702002027
:10098000803E0020F50200202C6B0020FCA60020F9
:1009900088640020D82100206F37002070370020A5
:1009A00018880020881C0020CCA3002000100240E2
:1009B00000E100E094812142F8A600203483000881
:1009C000D49E0020622B05D0A3F15E02012A01D93A
:1009D0005C2B15D104280FD1EC789F4A661E744217
:1009E000744114706CB1547844B903F0FD015C2972
:1009F00007D10121517004E0042402E0002400E04A
:100A000002245D2B0AD195F80131042B1BD1934BA5
:100A1000DA78934B501E424242410BE05B2B14D1DB
:100A200095F80131042B0ED18C4BDA788D4B511E89
:100A30004A424A411A70002A86D05A78002A83D145
:100A400001225A7080E7042402E0002C3FF47CAFBE
:100A50008548BEE1854B1B78002B63D1844C02395D
:100A60004FF47A725FFA81F82046002107F0EAF825
:100A700000200822A4F8E823A4F8EA0384F8EC0391
:100A80002746C3B2434541D200235FFA83FE0C21BF
:100A900001FB0EF1774D05EB010C695CA94689B3AA
:100AA000754D0133455D8D42EFD19CF808A013468A
:100AB0004FF00045991AC9B2514524D20C2101FBCF
:100AC0000E914968DFF8E0B12940A94203F0070C14
:100AD0004FEAE3011BF80CB017F801C00CBF4BEA5A
:100AE0000C0C2CEA0B0C07F801C040F2E2318B42EF
:100AF00004D90023A4F8E833042414E001336D087A
:100B00009BB2D7E7134601301A46BAE7082AF0D05D
:100B10000532574B91B2A3F8E813584809B201F0D7
:100B200089FF05E50524564853E1564B1B788BB1E8
:100B30004E4B1D78012D0DD82C2818BF04240AD146
:100B40004D4801F037FF044628B9002D7FF4F0AC82
:100B500001208FE102244C4857E14A4B1B7873B1C6
:100B6000424B1D78012D0AD80F2818BF042407D145
:100B7000414801F03FFF04460028E6D000E002248F
:100B8000424842E13F4B1B784BB1384B1D78012D59
:100B900005D801F0F9FE04460028D6D000E0022472
:100BA0003B4832E13B4B1B787BB3304B93F80080E2
:100BB00018F0FD0529D1384B1B7833B3252818BF11
:100BC000042423D1354C204605F01DFF202841F296
:100BD0006F8094F8E83023B1258184F8E85065816E
:100BE000257300242D4D3B1928461979013405F051
:100BF000C9FE212CF6D12A4B1B78002B41F05280E4
:100C0000012385F84C3001F04DB802242548E0E07E
:100C1000204B1B78E3B1154D2B7813F0FD0F17D146
:100C20001D4B1B782BB10239C9B2134805F00EFFDA
:100C300006E0252818BF04240BD10F4802F0B8FBAA
:100C4000044630B92B78002B7FF472AC022011E1FE
:100C500002241448D9E000BF146A00206863002011
:100C6000C8A30020E48300205D830008A8090020B9
:100C7000E8830020308100086B6300207F83000838
:100C80009B830008C2020020AE830008CD830008C9
:100C9000EA830008F6020020F5020020406A0020E6
:100CA000AA09002006840008AC850008764B1B7852
:100CB000002B00F0A987042840F0A887EB78012BCF
:100CC00017D1724A1278022A40F0A087704A117830
:100CD00000297FF42DAC6F4A82F84C30C2F8DC104A
:100CE000C2F8E010C2F8E41082F8E81082F8E910C7
:100CF0001EE4002B40F08A87644A1278022A40F0F2
:100D00008787634A1278002A3FF412AC614A82F85E
:100D10004C30C2F8DC30C2F8E030C2F8E43082F87F
:100D2000E83082F8E93003E4574B1B785BB10C28BC
:100D300018BF042408D1584802F010FE04460028C9
:100D40003FF4F6AB00E0022454485EE04E4B1B78C3
:100D5000BBB1042A17D1EB780022012B09D0022B5A
:100D600011D14C4BC3F8E420012283F8E920FFF7AE
:100D7000DFBB484BC3F8E020012283F8E820FFF7EF
:100D8000D7BB022400E00424454822E0454B1B78F1
:100D9000DBB13E4B1D780DB1032D16D17C2818BF59
:100DA000042415D1404805F02EFE77280FD90024E1
:100DB0003B193D481979013405F0E4FD782CF7D151
:100DC000002D7FF4B5AB032054E0022400E005249D
:100DD000364821461AE0364B1B7893B12B4B1D78D1
:100DE00015F0FB0F0DD10239C9B212290BD92A48CF
:100DF00005F074FE044638B9002D7FF499AB042049
:100E000038E0022400E004242A4821B201F012FE56
:100E1000204601F0C7F8FFF78BBB254B1B787BB151
:100E20001A4B1D7815F0FB0F0AD10239C9B21229ED
:100E300008D9194805F052FE04460028DCD002E02B
:100E4000022400E004241C48DFE71C4B1B78ABB1F4
:100E50000E4B1D780DB1052D10D1342818BF042478
:100E60000DD10D4805F022FE044640B9002D7FF457
:100E70005FAB052003F086F9FFF75ABB0224104848
:100E8000C3E70120C5E700BFF6020020A809002043
:100E9000AA090020406A00206B630020208400081B
:100EA0003E840008E8010020D49E002059840008F8
:100EB000F40200207D84000899840008F7020020D5
:100EC000B2840008A54C4BF67F33D4F82423254682
:100ED0009A4205D9A24B002283F8002183F8012110
:100EE000D4F81813227801319C4BC4F81813002A47
:100EF00000F00983D3F824234BF67F339A421ED99E
:100F000098490B785A1E042A16D8022B10D1964BFA
:100F10001B786BB1954B002283F84C20C3F8DC2082
:100F2000C3F8E020C3F8E42083F8E82083F8E92040
:100F300000230B7005F082F90023C4F82433D4F8A1
:100F4000182345F6BF518A42844B0AD90022C3F8C0
:100F5000182393F81C2382F0010283F81C23844B8E
:100F60001A60844805F0E7FB20B97F4B1A78002A05
:100F700040F05286804805F0DEFB012840F2D08226
:100F800000270BAC06AA3A447B48214605F086FBB5
:100F9000AA8EEB8E92B29BB29A424FEA470303D1DC
:100FA0006E4A92F83820A2B1E98E2A6B89B232F8E3
:100FB000111008AAD152002285F83820E98EA88D98
:100FC000013189B2E986E98E89B2884201D8634944
:100FD000CA8695F81D235AB1BDF82C201AB140F6E7
:100FE000FF718A4204D1B5F81E230132A5F81E23F1
:100FF000BDF82C10B5F8142301378A1AB5F9061379
:1010000012B24A430DF11C08022F4FEAE232DFF818
:101010004C9102F30F0228F80320B2D199F828531B
:10102000002D40F07D824F4B1B78002B4BD1534B52
:101030001B7853B109F16800414622463B4606F051
:1010400073FB204608A902F0BDFC4D4B1B784BB149
:101050004C4841462246022306F066FB204608A97A
:1010600003F0C6FF484B1B787BB14848414609AAAC
:10107000022306F059FB464809A92246022306F03E
:1010800053FB204608A904F07DF9424D424F2B78CE
:101090001BB93B78002B00F0438202233F484146B6
:1010A000224606F041FB3B781BB1204608A903F01D
:1010B00079FD2B78002B00F03382394B1B78002B05
:1010C00000F0C08029E0012B10D12C4B1B78002BA5
:1010D00000F0268209F16800414622463B4606F0B0
:1010E00023FB204608A902F06DFC19E2022B40F018
:1010F000AE80284B1B78002B00F012823B4609F192
:101100005C004146224606F00FFB254B1B78002B66
:1011100000F09880144B1B7843B9BDF92C0001F006
:10112000ABF8BDF92E0001F0A7F8F9E10DF11707B2
:1011300017F8012F1B4B042ADFF86C8036D0082AE1
:101140003FD10022A3F82227A3F82A27A3F82027BB
:10115000C3F82C2783F8412733E000BFCCA300203D
:1011600068630020A8090020AA090020406A002026
:1011700090812142E4A30020D0A30020C2020020DD
:10118000F402002040A40020F70200204CA400201C
:1011900058A40020F6020020E801002028A4002026
:1011A000F5020020D821002056370020A249002255
:1011B0000A8021F8022C03F5AC51A8F800200A603F
:1011C0004A75B3F82AE70DF1200A0EF1010E1FFA55
:1011D0008EFEA3F82AE7B3F84437615B734535F810
:1011E0000A20964807D990F8469719F1000918BFC8
:1011F0004FF0010903E009B201F0BEF98146B8F8E9
:1012000000008F4B0130B3F800E080B28645615B8F
:101210003AF80520A8F8000004D99878003018BFE3
:10122000012004E0A3F2447009B201F0A5F90235EF
:10123000042D7FF47DAFB9F1000F18BF012002F03B
:101240004FFA6DE1204608A904F06CFA68E1032B1F
:1012500010D17C4B1B78002B00F0628109F15C00FF
:10126000414622463B4606F05FFA204608A903F0B5
:1012700099FC55E1042B10D1734B1B78002B00F027
:101280004F8109F17400414622463B4606F04CFA74
:10129000204608A903F0ACFE42E1052B17D16B4BA9
:1012A0001B78002B00F03C8109F18000414609AA1F
:1012B0003B4606F039FA09F18C0009A922463B4663
:1012C00006F032FA204608A904F05CF828E1632B06
:1012D00040F0C4800DF1240A3B4609F16800414604
:1012E000524606F021FA2F46594D3AF807002B795D
:1012F000C10B8B42A84609D02B68B3F5004F2ABF1B
:101300006FF4CC7203F299139B182B60D5F800E0B0
:101310004F4B0EF54C523332B2F5803F297101D25A
:101320001A6083E0AEF54C42CD3A1A609A685200DA
:1013300009B142F001029A6095F83C20531CDBB2DF
:1013400008EB4202172B85F83C30908103D9404BC3
:10135000002283F83C20A86820F07F433D48584095
:1013600005F0DAFA02282DD800214FF47A534CF216
:10137000801208EB0100B0F90C0012B21BB202316E
:101380008242B8BF02468342A8BF0346302992B2C8
:101390009BB2EED110B219B2C1EB000EBEF1050F37
:1013A00010DD00124FF0000E8DF82D0009122046BE
:1013B0008DF82CE08DF82E208DF82F108DF8303020
:1013C00001F0BCFAAB68244823F07F43584005F095
:1013D000A3FA02282AD800214FF47A534CF2801243
:1013E00008EB0100B0F90C0012B21BB202318242CC
:1013F000B8BF02468342A8BF0346302992B29BB2CF
:10140000EED110B219B2451A052D0FDD001280255C
:101410008DF82D00091220468DF82C508DF82E20C5
:101420008DF82F108DF8303001F088FA0237042F34
:101430007FF45AAF74E000BF4E370020D82100205F
:1014400070370020E8010020F4020020F70200209D
:10145000D887002068B4AA00974B5500602B5FD155
:10146000002708ABFA5ABB4BBA4D588959689042CD
:10147000188938BF5A81904288BFB648114488BF46
:1014800002811A68596001321A6045F6BF539A42C8
:1014900035D9B1FBF2F368892A89E0214FEA122C91
:1014A000C3F3072E4FEA10288DF825008DF8293058
:1014B0008DF82C108DF8300009218DF8343020463D
:1014C000A54B8DF827208DF832208DF824808DF8DB
:1014D00026C08DF828E08DF82E108DF82F808DF81D
:1014E00031C08DF833E08DF82D1098479B4A0023CA
:1014F00013604FF6FF722B606B602A816B8102379D
:10150000042FAED10CE09648814209D9C3F81823C4
:1015100093F81C2382F0010283F81C23914B1A607C
:10152000914B924D1B7823B12B78012B01D102F006
:1015300097FF8F4B1B7853B12B78022B07D18D4B24
:101540001B7813B103F0EEF901E003F0A5FA8A4B22
:101550001B78002B59D02B78032B56D1874F384658
:1015600005F031FA3C46002840F05D83B7F8EC34D2
:10157000002B4AD057E3A7F8EC240023A7F8EE3459
:10158000B7F8EC34002B40D001F02AFF0746142FA7
:101590003BD9B4F8EE345A1CA4F8EE24234494F852
:1015A000F22493F83C00002300F0C00EBEF1800F3F
:1015B00009A900F06883BEF1C00F40F05C83002AE7
:1015C00040F2657E18BF4FF46D7E21F803E00233D0
:1015D0008000082BC0B2E7D169480BAA042305F0AC
:1015E000B9FE0BA914220023032001F059FAB4F824
:1015F000EE14B4F8EC24143F9142BFB25F4BC6D353
:101600000022A3F8EE24A3F8EC245E4B1B7823B150
:101610002B78042B01D102F097FE5B4B1B7823B192
:101620002B78052B01D103F0E3F82B78632B40F0E6
:101630003981564C02F014FF2378002B00F03281E0
:10164000534805F0E0F90D23B0FBF3F0C3B2042BCF
:1016500040F2288100234F4A0BA89A5C1A540133A8
:101660000C2BF8D162881523B2FBF3F103FB112395
:101670009BB2002B00F00B81012A04D130238DF89E
:101680003530022305E0022A07D134238DF83530A6
:1016900019238DF83630DE23F7E0032A04D13123F5
:1016A0008DF835306F23F4E7042A07D11F238DF816
:1016B00035302B238DF83630F623E6E0052A04D1A9
:1016C00032238DF8353022230FE0062A07D1242358
:1016D0008DF835302A238DF83630E023D5E0072AFF
:1016E00007D133238DF835303B238DF83630B323C3
:1016F000CBE0082A00F09B80012B07D125238DF831
:1017000035304F238DF836309323BEE0022B07D1BE
:1017100070238DF835300B238DF83630DA23B4E0A2
:10172000032B01D1252310E0042B04D133238DF8A2
:1017300035301B23D9E7052B04D125238DF835300F
:101740006F2364E0062B27D139238DF835301D2314
:101750007BE000BF7C640020F902002018002742D3
:101760007FA9030090812142C2020020A809002025
:10177000F6020020F5020020E8010020D49E00209F
:10178000E49E0020F4020020F7020020F8A60020CA
:10179000803E00207F800008072B07D125238DF88D
:1017A00035300C238DF83630C7236EE0082B04D17A
:1017B00050238DF835306F2308E0092A00F07B8232
:1017C000092B07D125238DF835301E238DF83630AF
:1017D000D0235AE00A2A00F071820A2B07D1212374
:1017E0008DF835300C238DF83630C2234DE00B2AAE
:1017F00000F067820B2B01D1252319E00C2A00F0A1
:1018000063820C2B07D13D238DF8353002238DF8F0
:101810003630D72339E00D2A00F059820D2B01D143
:10182000252333E70E2A00F055820E2B04D15023D6
:101830008DF835306F2358E70F2A00F062820F2BA6
:1018400007D125238DF835301B238DF83630D6236C
:101850001BE0102A0BD0102B07D123238DF8353035
:101860001B238DF836303A230FE0112A06D0112BB6
:1018700004D121238DF83530252303E016238DF87C
:10188000353029238DF83630F5238DF8373001F0C7
:10189000B1F8628840F276230132B2FBF3F103FB28
:1018A000112363802B78622B07D05F2B05D05E2B32
:1018B00010D05C2B40F0ED809AE0BD4B1A78BD4B08
:1018C0002AB1052283F84C2003F02CF8E1E083F8DC
:1018D0004C20DEE003F026F8B74805F094F8232307
:1018E000B0FBF3F010F0FF0F00F0D380B04C637842
:1018F000013B032B00F2C680DFE803F0021C545EBC
:10190000012001F0E3FFAD4802F028F8AC482221A5
:1019100005F09CF8A74B012283F84C200022C3F865
:10192000DC20C3F8E020C3F8E42083F8E82083F843
:10193000E92073E094F82A20A249C2EBC2028B1876
:101940005878895CE0759878A27D2076D878984F91
:101950006076187901F00F01A07658799B79E076CE
:10196000207F22F00F0200F00F0023F00F0303434B
:101970000A4307F1080022212377A27505F066F8D3
:1019800094F82A30052B09D1002387F82A303B78B8
:10199000002B7ED1864B03225A707AE0013387F800
:1019A0002A3076E08848222105F050F8814BD3F8A0
:1019B000DC306360042366E07E4A6068D2F8DC3085
:1019C0001E3083427A4964D90023138382F84C3055
:1019D0005383C2F8DC30C2F8E030C2F8E43082F859
:1019E000E83082F8E930137781F82A304B7050E004
:1019F00003F052F8754805F006F82323B0FBF3F026
:101A000010F0FF0F45D06A4C6378022B08D0032BEF
:101A100035D0012B39D16E4801F0CAFC022332E0E7
:101A200094F82A206B49C2EBC2028B185878895C63
:101A3000E0759878A27D2076D87801F00F01607665
:101A4000187922F00F02A07658799B79E076207FF2
:101A500023F00F0300F00F0003430A4304F10800D2
:101A60002377A27501F0A4FC94F82A30052B04D149
:101A7000002384F82A3023788AE7013307E05648A8
:101A800001F096FC0023637003E00023637084F888
:101A90002A302B785D2B21D102F056FC4F4804F000
:101AA000B2FFD823B0FBF3F010F0FF0F16D04C4C70
:101AB0006378012B02D0022B06D00DE04948D921D2
:101AC00005F00CF8022308E04748D92105F006F894
:101AD000237813B1012300E0002363702B785B2B84
:101AE00021D102F085FE414804F08DFF3023B0FB88
:101AF000F3F010F0FF0F16D03D4C6378012B0FD19F
:101B00003C4BA278312000FB023004F0CFFFA378D9
:101B1000013303F00303A370237823B9637002E059
:101B200000236370A3702B78002B7EF4F7AB324C4C
:101B3000B4F8E833002B3EF4F1AB01F051FC05465C
:101B4000182D7EF6EBABB4F8EA332C4903F007020C
:101B5000DB108A5CE35C6120134003D02849182223
:101B6000002301E02749182200F09AFF94F8EC23A3
:101B7000183D0132D2B2312AADB21F4B84F8EC23AA
:101B800007D9B3F8EA230132A3F8EA23002283F845
:101B9000EC23B4F8EA13B4F8E823174B9142CFD3FF
:101BA0000022A3F8EA23A3F8E823FEF7B7BB00BF9F
:101BB000146A0020406A0020506A00205480000807
:101BC0008B8000082A80000808800008FCA60020FE
:101BD000AD800008B48500085D8000082C6B0020F3
:101BE000C8A3002000000020E90100208864002034
:101BF000E4830020E8840008E8830020AC85000826
:101C0000C402002078090020022402E0042400E03D
:101C100004463E48FFF7DDB8187094F804233C4BA7
:101C20001A60FFF7A7B9B7F8EC34002B7FF4A8AC23
:101C3000384B1B7863B9384AB2F8F02499B2914214
:101C4000BFF499AC2144772081F83C000133F5E7DB
:101C50004FF07808304804F081FEB4F8EC3408F115
:101C6000FF385A1C18F0FF082344A4F8EC2483F82A
:101C70003C00EFD181E4BEF1000F0BD14FF6C46EF2
:101C80004FF6895C0AE0002A40F2772E18BF4FF425
:101C90009E7E9AE44FF64C4E4FF69B0C002A08BFEE
:101CA000E64692E4B8F1000F7EF442ACFEF7CEBFF8
:101CB0000524FEF7ABBF0A2B0FD190E50B2B10D1FB
:101CC0009AE50C2B11D19EE50D2B12D1A8E50E2B18
:101CD00013D1ACE50F2B14D1B3E50B2B7FF491ADF1
:101CE0008AE50C2B7FF49AAD8DE50D2B7FF49DAD2D
:101CF00096E50E2B7FF4A3AD99E50F2B7FF4ABADEA
:101D00009FE5102B7FF4B3ADA7E500BFCD8400089D
:101D1000B0812142AA090020D49E0020F0B5224CB7
:101D2000A3B094F80241002C3BD0E0248DF804408D
:101D3000F4248DF806400025EEB2EC1C865DE4B27A
:101D400022AF0135274416B107F8846CF4E7081276
:101D500007F8840C601C22ADC0B2284400F8841C33
:101D6000A11CC9B21012294401F8840CE11CC9B2AB
:101D7000294401F8842C221DD2B219122A4402F8F7
:101D8000841CA11D0534E4B22C4404F8843CC9B27F
:101D9000064B01A88DF805109847054B1E6004F00E
:101DA000EBFC23B0F0BD00BF68630020F902002007
:101DB00018002742F0B584462948A3B090F80201E4
:101DC000BDF9A070002848D0E0208DF80400F5206F
:101DD0008DF806000025E8B2EC1C1CF80060E4B2A7
:101DE00022A80135204416B100F8846CF3E70D12E7
:101DF00000F8845C601C22ADC0B2284400F8841C4A
:101E0000A11CC9B21012294401F8840CE11CC9B20A
:101E1000294401F8842C221DD2B219122A4402F856
:101E2000841C621DD2B22A4402F8843CA31D04F132
:101E30000801DBB207342B443A12E4B203F8842CD5
:101E4000C9B2084B2C4401A804F8847C8DF8051015
:101E50009847054B1E6004F08FFC23B0F0BD00BF17
:101E600068630020F902002018002742F7B54CF201
:101E700080124FF47A554FF0000E2E4617461FFA87
:101E80008EF38B42454C27D200F10C0334F913300A
:101E9000002B0ADD3FB236B2BB42A8BF1F46B34299
:101EA000B8BF1E46BFB2B6B209E02DB212B2AB4205
:101EB000B8BF1D469342A8BF1A46ADB292B2431DA9
:101EC0009BB2B3F5875F03D3A0F586501B3883B26E
:101ED0000EF1010E1846D2E739B236B22DB212B267
:101EE00031442A44491052108E187610B7B28E1B16
:101EF000B6B233B200932A483BB2FFF75BFF42F21F
:101F00003821635C632B0FD10023E218023302F502
:101F10000751202B02F508528F86D682F5D1002278
:101F200042F23823E25410E003F58752183204EBF2
:101F30004202978003F588520133DBB2083204EB8A
:101F400042020F2BD6806354E9D8002342F21422B8
:101F5000A35242F23622A3521E461A46A11801F598
:101F6000075001F5085134301631008809880232D3
:101F700003443144202A094D9BB289B202D09BB25E
:101F80008EB2EBE743F30B1342F21422AB5241F350
:101F90000B1142F23623E95203B0F0BD2441002078
:101FA000FD85000807B5E0238DF800307F238DF80C
:101FB0000230094B05219B788DF804008DF8033021
:101FC0006846064B8DF801109847054B00221A60B1
:101FD00003B05DF804FB00BF68630020F902002035
:101FE0001800274207B5E0238DF8043070238DF8E0
:101FF0000630084B04219B780DEB01008DF807306B
:10200000054B8DF805109847044B00221A6003B069
:102010005DF804FB68630020F902002018002742E5
:1020200010B5144BA2B01B78032B00D0FBB9124B98
:102030001B78E3B1E0238DF8043020238DF80630BF
:102040000023DAB2D41C8A42E4B206D222AA144493
:10205000C25C013304F8842CF3E70331C9B2074BA7
:1020600001A88DF805109847054B00221A6022B090
:1020700010BD00BFA8090020E8010020F9020020DF
:102080001800274210B5134BC0B01B7813F0FB03A8
:102090001ED1114A1278DAB1E0228DF804203122E3
:1020A0008DF80620DAB2D41C8A42E4B206D240AAE5
:1020B0001444C25C013304F8FC2CF3E70331C9B2C9
:1020C000064B01A88DF805109847054B00221A60B1
:1020D00040B010BDA8090020F4020020F902002041
:1020E0001800274210B5134B86B01B78012B1FD860
:1020F000114B1B78E3B1E0238DF8043011238DF8E8
:1021000006300023DAB2D41C8A42E4B206D206AA10
:102110001444C25C013304F8142CF3E70331C9B250
:10212000064B01A88DF805109847054B00221A6050
:1021300006B010BDA8090020C2020020F90200204C
:102140001800274210B50B4CB4F85C234AB1D4F800
:102150005813B1FBF2F2C2F30721017342730E214F
:1021600000E00C21FFF7BEFF0023C4F85833A4F8A9
:102170005C3310BD2819002010B5E0238EB08DF817
:10218000043010238DF806300023DAB2D41C8A42C2
:10219000E4B206D20EAA1444C25C013304F8342C13
:1021A000F3E70331C9B201A8044B8DF80510984735
:1021B000034B00221A600EB010BD00BFF9020020D0
:1021C000180027420E4B13B51B7813F0FD0414D1F1
:1021D0000C4B1B788BB100284FF0E0038DF80430D6
:1021E0000CBF19231B2303218DF8063001A8064BD1
:1021F0008DF805109847054B1C6002B010BD00BF5C
:10220000A8090020F6020020F90200201800274249
:1022100010B5154B8AB01B7813F0FD0322D1134C77
:102220002478FCB100284FF0E0040CBF18201A20DD
:102230008DF800408DF80200D8B2C41C9042E4B280
:1022400006D20AA80444C85C013304F8280CF3E75A
:10225000D11CC9B2064B68468DF801109847054B52
:1022600000221A600AB010BDA8090020F602002062
:10227000F9020020180027422DE9F04FA14C002858
:10228000B4F83C35B4F83EA554F82320A7B04FEA83
:102290004202B8BF42F0010244F8232054F8233030
:1022A00004EB4A029082984823F07F43584004F0A0
:1022B00033FB022800F2D4800AF2212080B2B0F56C
:1022C000257F28BFAAF173024FF000012CBF92B204
:1022D00002460D464FF47A564CF280198B4F04EBB0
:1022E0004203B3F91430CF570FFA89F936B2994542
:1022F000B8BF99469E42A8BF1E46012F1FFA89F912
:10230000B6B208D0032F04D0013706D003EB430345
:1023100003E003EB4303ED1A00E01D44531D9BB2A1
:10232000B3F5257F28BFA2F28F2201F1010128BF5A
:1023300093B2182901D01A46D0E7D4F844359D420B
:1023400040F38E800FFA89F936B24E44761044F687
:102350003143C6EB090903FB09F94FEAE939B0F546
:10236000257F1FFA86F81FFA89F728BFAAF17300A4
:102370000FFA88F30DF10C0B0FFA87FA00935A4607
:102380004FF0040328BF80B2CDF804A0182104F058
:10239000E3F800231A465E49585C1BF8031001401D
:1023A0005C48185C013341405B48072B415C0A44A0
:1023B000D2B2F0D1032A53D8584B93F80231002BF4
:1023C00037D0E0238DF81430F3238DF81630002237
:1023D0005349D0B2D31C10F801B0DBB226A90132A8
:1023E0001944BBF1000F02D001F884BCF0E73212AF
:1023F00001F8842C5A1C26A9D2B20A4402F8846C33
:102400009A1CD2B20A444FEA2A2A191D033302F851
:1024100084ACDBB226AA134403F8849CC9B2414BB6
:1024200005A88DF8151098473F4BC3F800B004F08D
:10243000A3F9B4F83E25334B02F20D1189B2B1F580
:10244000257F24BF6FF4C3715218C4F84455A4F813
:102450004885A4F84A7534BFA3F84015A3F8402571
:10246000B4F83E25B4F84035934233D1981D80B27C
:10247000B0F5257F24BFA3F28E2398B2B4F9483576
:1024800084210093B4F94A3505AA0193082304F086
:1024900063F80DF10B0203AB02A80DF1150104F076
:1024A000BFF89DF80B2094F84C359A420BD19DF85B
:1024B0000C30032B07D1C323002005A922228DF85D
:1024C0001430FFF7A5FE42F20F73A4F84035002345
:1024D000C4F84435B4F83E250A4B013292B2B2F545
:1024E000257F28BF0022A3F83E25B4F83C25054BE4
:1024F000013292B2042A88BF0022A3F83C2527B0FB
:10250000BDE8F08F881C00206E287600E585000865
:1025100028880008DE8500082F88000868630020EE
:102520001D860008F902002018002742B0F826375F
:1025300030B503F13C0203F516739DB292B200234D
:10254000541C00EB4202A4B2B2F84A27AC42134436
:1025500001D02246F4E74FF40772B3FBF2F3C3F362
:10256000072281F8222081F8233000782422BDE858
:102570003040FFF74DBE0000F0B5B0F822370446FA
:10258000B0F828078FB09842C0F06181B3F5617F41
:1025900080F05D8104EB43000183A0F84A27B4F882
:1025A0002027002904EB820250684FEA4000B8BFA0
:1025B00040F00100506094F8462732B9A3F5C87383
:1025C0005A2B10D8204601210BE0B4F82427511EC5
:1025D00089B28B4207D3013292B2934203D820468C
:1025E000002100F0C7FDB4F82237B4F8281799424B
:1025F00040F01F81B4F93237B4F93067B4F9387755
:102600001E44B4F934370EAD1E44B4F93637A1F286
:102610008E211E44B4F93A3746F38F061F44B4F9AD
:102620003C3720461F44B4F93E3789B21F4494F822
:10263000413747F38F0705F8243D0823009301969F
:102640002B460297842204F0B9F894F84137402BC6
:1026500040F097800DF113020DF1120304A80DF163
:10266000150103F0DDFF9DF8132094F843379A42DB
:1026700040F0DF8000239DF8142084F8423784F86E
:1026800047379DF812301A438DF814200A2B60D872
:10269000DFE803F03C35545F5F5F061B1B5F1B00E8
:1026A0002378B4F92427002B14BF022101213346DB
:1026B0006A480097FFF77EFB20462946FFF736FF62
:1026C000022384F84637002316E094F84637022B9D
:1026D00040F0AF802378B4F92427002B14BF0221E7
:1026E000012133465E480097FFF764FB20462946E8
:1026F000FFF71CFF9DF8123084F8483799E02378E3
:10270000B4F92427002B0097564809E094F846377F
:10271000012B0FD12378B4F924275348002B0097BD
:1027200014BF022101213346FFF744FB204629460E
:10273000FFF7FCFE012384F846377AE094F8463729
:10274000012B76D12378B4F92427002B0097474832
:1027500005E02378B4F924274548002B009714BFDF
:10276000022101213346FFF725FB20462946FFF7CA
:10277000DDFE002384F8463742F20F73A4F82837B1
:1027800057E0202B18D12378B4F92427002B14BF4D
:1027900002210121334637480097FFF70BFB204603
:1027A0002946FFF7C3FE012384F84637002384F847
:1027B000423784F847373CE094F846378BB194F8B9
:1027C00042370133DBB20C2B84F8423709D9207829
:1027D000FFF7F8FC002384F8463742F20F73A4F8A1
:1027E000283794F84637012B16D194F84737042B35
:1027F00006D920238DF81430002384F8473705E0EC
:102800000133DBB284F847378DF81430207829463D
:102810002222FFF7FDFC0CE0022B0AD194F8483786
:102820003BB143F04003204629468DF81430FFF7B2
:102830007DFEB4F822370133A4F82237B4F82037EC
:1028400001339BB2042B88BF0023A4F8203794F8EF
:102850004607003018BF01200FB0F0BD49860008C0
:1028600080860008B8860008F08600082B870008DC
:1028700067870008978700080146164830B5B0F80A
:102880005A3B4FF407743C339BB20022054605EBDC
:102890004300B0F87C0B013C0244581C80B2B0F5F8
:1028A000B46F28BFA3F29F53A4B228BF98B20CB153
:1028B0000346ECE74FF40773B2FBF3F2C2F30723CE
:1028C00081F8232081F8223001202422BDE8304005
:1028D000FFF79EBC1888002010B5144BA2B01B78DF
:1028E000052B00D0FBB9124B1B78E3B1E0238DF828
:1028F000043040238DF806300023DAB2D41C8A421B
:10290000E4B206D222AA1444C25C013304F8842C37
:10291000F3E70331C9B2074B01A88DF805109847BA
:10292000054B00221A6022B010BD00BFA80900208C
:10293000F7020020F90200201800274200B50F4BD3
:10294000A3B01B78632B16D1E0238DF80430082345
:102950008DF80630002301AA1A44C15C0133052B0F
:10296000D170F8D10821064B01A88DF805109847C1
:10297000044B00221A6023B05DF804FBA809002074
:10298000F90200201800274208B5084804F03BF877
:10299000014620B9064800F04DF8052008BD022187
:1029A000024803F0EFFF002008BD00BF803E00207A
:1029B000CD87000838B505460C4804F024F82928CE
:1029C000014605D80A4809B200F034F8052038BDA0
:1029D0000648002103F0D6FF0024295D0348013496
:1029E00003F0D0FF292CF8D1002038BD803E002014
:1029F000EA87000838B505460C4804F004F80C28AE
:102A0000014605D80A4809B200F014F8052038BD7F
:102A10000648012103F0B6FF0024295D0348013474
:102A200003F0B0FF0C2CF8D1002038BD803E002010
:102A30000A88000830B5174BA3B093F802310D4651
:102A40002BB3E0238DF80430F2238DF806300023F9
:102A5000D9B2DA1C445CD2B222A90133114414B1B8
:102A600001F8844CF4E72B1201F8843C531C911CB0
:102A7000DBB222AA134403F8845CC9B2064B01A856
:102A80008DF805109847054B1C6003F075FE23B0C8
:102A900030BD00BF68630020F90200201800274203
:102AA0002DE9F843284C1F46237889469046002B91
:102AB00048D094F82833002B44D1244B1A783AB9E3
:102AC00001221A7094F80423214B82F001021A604B
:102AD0000138042813D8DFE800F00306090C0F00C2
:102AE000B4F80A530DE0B4F80C530AE0B4F80E53EE
:102AF00007E0B4F8105304E0B4F8125301E0B4F85E
:102B000008530026B3B243451CD239F9163029B216
:102B10005943B4F81623C91301F30F01114489B2C4
:102B2000B1F5805F084B04D3B3F820230132A3F83A
:102B3000202308480FB93A4600E0BA5D03F0D4FDFF
:102B40000136DFE7BDE8F883CCA30020AA09002006
:102B5000B0812142E4A300202DE9FF47984C804634
:102B6000B4F8543B974854F8233023F07F4358403F
:102B700003F0D2FE0228A0F10300C0B28CBF4FF0D8
:102B8000000A4FF0010A122840F21781B4F856CB20
:102B900000220CF22D5080B2B0F5B46F26BFACF11C
:102BA000730189B2014615464FF47A564CF28017EC
:102BB00004EB4103B3F914303FB236B29F42B8BFC1
:102BC0001F469E42A8BF1E46BFB2B6B2BAF1000F62
:102BD00002D0DFF8FC9101E0DFF8F89112F80990DB
:102BE0004FFA89F9B9F1010F0AD0B9F1030F05D0F5
:102BF000B9F1FF3F06D003EB430303E003EB4303CC
:102C0000ED1A00E01D444B1D9BB2B3F5B46F28BF15
:102C1000A1F29B5102F1010228BF8BB2182A01D008
:102C20001946C5E7D4F8603B9D4240F3C6803FB2E9
:102C300033B23B445B109EB2FF1A44F631435F430C
:102C4000B0F5B46F33B2C7F3CF3728BFACF1730020
:102C500000930DF108093BB228BF80B201931821FF
:102C60004A46042303F086FA57495848BAF1000F40
:102C700044D000231A4610F803A019F803C00AEA4A
:102C80000C0CDFF854A113F80AA001338CEA0A0CEB
:102C900011F80CC0072B6244D2B2ECD1032A00F227
:102CA0008C80B8F1000F13D00023A4F8727BA4F835
:102CB000707BA4F86E7BA4F86C7BA4F86A6BA4F814
:102CC000686BA4F8666BA4F8646B84F8743B10E03E
:102CD00094F8743B3A4A04EB43010133DBB2032B13
:102CE000A1F86C7BA1F8646B94BF82F8743B82F806
:102CF000748B334AC4F8605B402342E0534652462B
:102D000010F803A019F803C00AEA0C0CDFF8CCA0F5
:102D100013F80AA001338CEA0A0C11F80CC0072B37
:102D20006244D2B2ECD1032A47D8B8F1000F13D0D5
:102D30000023A4F8727BA4F8707BA4F86E7BA4F83F
:102D40006C7BA4F86A6BA4F8686BA4F8666BA4F8B3
:102D5000646B84F8743B10E094F8743B184A04EBFD
:102D600043010133DBB2032BA1F86C7BA1F8646B48
:102D700094BF82F8743B82F8748B114AC4F8605B8C
:102D8000202384F8753BB4F8563B03F21A4189B20C
:102D9000B1F5B46F28BFA3F5C371A2F85A1B03F2B3
:102DA0000D1292B2B2F5B46FA4F8583B2ABFA3F249
:102DB0009343A4F85C2BA4F85C3B04B0BDE8F08717
:102DC000188800206E2876002F880008688C00087C
:102DD000A0890008EC890008618C0008438900087C
:102DE0002DE9FF41744C42F2D813E35A734804EBC7
:102DF00083035B6823F07F43584003F08DFD022876
:102E000000F2D58042F2DA13E05A002100F5835631
:102E10000D36B6B2B6F5875F26BFA0F1730292B247
:102E200032460D464FF47A574CF2801CDFF8908101
:102E300002F10C0334F9133011F908800FFA8CFCFD
:102E40003FB29C45B8BF9C469F42A8BF1F46B8F101
:102E5000010F1FFA8CFCBFB20AD0B8F1030F05D0E6
:102E6000B8F1FF3F06D003EB430303E003EB43035A
:102E7000ED1A00E01D44531D9BB2B3F5875F03D3E9
:102E8000A2F586521B3A93B20131182901D01A4695
:102E9000CCE742F2EC12A258474B954240F38780B0
:102EA00042F238229A5C632A13D10FFA8CFC3FB2AB
:102EB00067447F1042F214229F52C7EB0C0C44F679
:102EC0003E1707FB0CFC42F236224FEAEC3C23F89B
:102ED00002C042F21423E35EB6F5875F009342F22C
:102EE000362328BFA0F17306E35E28BFB6B202AF57
:102EF0000193304618213A46002303F059FA20780E
:102F00000023002814BF042202221946DFF8B4C0AF
:102F100013F80C8017F803C0013388EA0C0CDFF8B3
:102F2000A880062B18F80CC06144C9B2EED19142BA
:102F30003DD842F2EC13E550052242F2F013E25282
:102F400042F2DA13E35A42F2E812A35242F2DE12DC
:102F5000A65203F58352073292B2174FB2F5875F3C
:102F600042F2E01128BFA3F179027A52E8B903F2E4
:102F7000BB7080B242F2E612A3520F4942F2DC1259
:102F8000B0F5875FA65228BFA3F6251042F2E212E1
:102F9000885203F2BD7189B2B1F5875F42F2E41243
:102FA0002ABFA3F62313A152A352012000E0002060
:102FB00004B0BDE8F08100BF24410020A030FB0038
:102FC000628900087A8900082F8800082DE9FF41EE
:102FD000634C41F2D823E35A624804EB83035B68F5
:102FE000C3F31303584003F097FC032800F2B380A7
:102FF00041F2DA23E05A002100F60116B6B2B6F526
:10300000166F26BFA0F15F0292B232460D464FF412
:103010007A574CF2801CDFF8548102F10C0334F92A
:10302000133011F908800FFA8CFC3FB29C45B8BFF1
:103030009C469F42A8BF1F46B8F1010F1FFA8CFCA7
:10304000BFB20AD0B8F1030F05D0B8F1FF3F06D0E8
:1030500003EB430303E003EB4303ED1A00E01D44DD
:10306000531D9BB2B3F5166F28BFA2F65B1201F198
:10307000010128BF93B2142901D01A46CBE741F2CF
:10308000E822A258364B954265DD41F234329A5C13
:10309000632A13D10FFA8CFC3FB267447F1041F2D0
:1030A00010329F52C7EB0C0C44F63E1707FB0CFC8A
:1030B00041F232324FEAEC3C23F802C041F21033C5
:1030C000E35EB6F5166F009341F2323328BFA0F1EC
:1030D0005F06E35E28BFB6B202AF019314213A4601
:1030E0000023304603F0CEF92378002B4FF0000385
:1030F00014BF0422022219461B4813F800C0F85CD2
:1031000001338CEA0000DFF868C0052B1CF80000D2
:103110000144C9B2F0D191421DD841F2E821655075
:1031200041F2EC21635241F2DA23E35A0C4A03F6EE
:10313000FB0080B202F59751B0F5166F0B8041F29B
:10314000DC21665228BF653B41F2DE2134BF50527C
:103150005352012000E0002004B0BDE8F08100BF20
:10316000A4700020ADB50700B88900082F890008B9
:103170002F880008B0F820372DE9F04700EB8303D3
:103180005B680446834823F07F4386B058408846F6
:1031900003F0C2FB0228A0F10300C0B28CBF4FF0C5
:1031A00000094FF00109122840F2F080B4F82237EC
:1031B0000020A3F1730189B205331FFA83FA0F4689
:1031C0004CF280164FF47A52054607F10C0334F99D
:1031D000133036B212B29E42B8BF1E469A42A8BF02
:1031E0001A46B6B292B2B9F1000F02D0DFF8B0C100
:1031F00001E0DFF8B0C110F80CC04FFA8CFCBCF154
:10320000010F0AD0BCF1030F05D0BCF1FF3F06D07F
:1032100003EB430303E003EB4303ED1A00E01D441B
:103220000537BFB2574500F10100CED1D4F82C3795
:103230009D4240F3AB8036B212B232445210B61AFD
:1032400044F631435E430423C6F3CF3600930DF1B9
:10325000100A33B201920293204697B253461822C5
:1032600003F0ACFA4C494D48B9F1000F40D00022B0
:10327000134610F802901AF802C009EA0C0CDFF8A5
:10328000289112F8099001328CEA090C11F80CC04F
:10329000072A6344DBB2ECD1032B77D8B8F1000FD7
:1032A00011D0A4F83E67A4F83C67A4F83A67A4F8E4
:1032B0003867A4F83677A4F83477A4F83277A4F8FE
:1032C000307700230BE094F8403704EB43020133DE
:1032D000DBB2032BA2F83867A2F8307702D884F863
:1032E000403701E084F84087C4F82C5740233FE082
:1032F0004A464B4610F802901AF802C009EA0C0C34
:10330000DFF8A89012F8099001328CEA090C11F844
:103310000CC0072A6344DBB2ECD1032B36D8B8F1DA
:10332000000F11D0A4F83E67A4F83C67A4F83A67F0
:10333000A4F83867A4F83677A4F83477A4F832777D
:10334000A4F8307700230BE094F8403704EB4302F5
:103350000133DBB2032BA2F83867A2F8307702D82A
:1033600084F8403701E084F84087C4F82C572023C4
:1033700084F84137B4F82237A3F5C372A4F8243790
:1033800003F20D13A4F82627A4F8283706B0BDE8E9
:10339000F08700BF6E2876002F880008E5890008B6
:1033A0004A89000888890008048C0008DE89000822
:1033B00038B50546094803F026FB202809D9002422
:1033C0002B1906485978013403F0DCFA212CF7D187
:1033D00001E0052038BD002038BD00BFFCA600205C
:1033E000114BD98C9A8C89B292B2914204D193F844
:1033F000282092B9188B11E0D98C9A8C89B292B29C
:10340000914205D29A8CD88C198B80B2084401E085
:10341000D88C9A8C801A80B200E000201B8B8342EB
:1034200038BF0020704700BFCCA30020124B63219F
:10343000002283F8701F42F20F711A70A3F8182F40
:10344000A3F8162FC3F8242FA3F81A1FA3F81C1FE4
:10345000A3F81E1FA3F8201FA3F8221FA3F84C2FC8
:10346000A3F86E2FA3F8282F83F82A2FC3F8742F00
:10347000A3F8782F704700BFAC0900202DE9F04772
:1034800003F1020CBDF920A00133BDF924901FFA0D
:103490008CFC9BB20027BCB2ACF102068C42B6B2E7
:1034A0004FD2294CF51004EB4004B4F81680C9F152
:1034B0000004CAEB08080FFA88F8A04506F00706D2
:1034C000224C07DA14F80680565D26EA080656559F
:1034D000DD101DE0B8F1000F07DA14F80680565D24
:1034E00026EA08065655DD1009E0C845A65D12F823
:1034F000058048EA060656554FEAE30508DA03F068
:103500000706A65D2C46555D25EA0605155506E01D
:1035100003F00708565D14F808403443545500F191
:103520000A04A4B2B4F5F06F24BFA0F2767084B29E
:103530000CF1020C023301371FFA8CFC9BB22046BF
:10354000A9E7BDE8F08700BFAC090020598C00084E
:103550002DE9FF415F4CB4F8163F04EB4303588854
:10356000C0F3090080F4A67080F0010003F0D4F9E4
:10357000022800F2AB80B4F8180F002100F2267682
:10358000B6B2B6F5F06F26BFA0F15A0292B232463B
:103590000D464FF47A574CF2801CDFF8408104EB63
:1035A0004203B3F9163011F908800FFA8CFC3FB2D0
:1035B0009C45B8BF9C469F42A8BF1F46B8F1010F6B
:1035C0001FFA8CFCBFB20AD0B8F1030F05D0B8F1D6
:1035D000FF3F06D003EB430303E003EB4303ED1A85
:1035E00000E01D4402F10A039BB2B3F5F06F28BF5F
:1035F000A2F2767201F1010128BF93B20A2901D02B
:103600001A46CAE7D4F8242F324B95425EDD93F870
:10361000702F632A10D10FFA8CFC3FB267447F10E1
:10362000C7EB0C0CA3F84C7F44F63E1707FB0CFCD1
:103630004FEAEC3CA3F86ECFB4F94C3FB6F5F06F0F
:1036400028BFA0F15A060093B4F96E3F28BFB6B266
:10365000019330460A2103AA0023FFF70FFF2378C6
:103660009DF80D009DF80C10002B1B4B80F0F50011
:1036700081F0CD01595C185C14BF0322012208447B
:103680009DF80E1021F00F0181F09001595C431854
:1036900003F0FF03934219D80623A4F8283FB4F897
:1036A000183F0C4A03F21B7189B2B1F5F06FA4F810
:1036B0001E3F28BF653BC4F8245FA4F81A6F34BFCF
:1036C000A2F81C1FA2F81C3F012000E0002004B05B
:1036D000BDE8F081AC0900202F8800080B8C0008A1
:1036E000034B1A7882421CBF024A10601870704760
:1036F000A9090020948121422DE9F0414F4C8046D8
:10370000D4F8DC300F460133C4F8DC30D4F8E030B4
:103710004A4E0133C4F8E030D4F8E4300133C4F841
:10372000E43094F86E300B2B84BF002384F86E30A5
:1037300094F86E30BBB9304603F045F906F16F05D9
:1037400048B906F1100003F03EF920B93C4A13686D
:10375000C6F86F3003E03B4A1368C4F86F30536813
:103760006B609368AB6094F86E20374B68322244EC
:1037700032F8071F012F198092784FF000009A70DD
:1037800014BF0422082284F88920D4F8DC2084F8AD
:103790008700132A84F88800A3F1AF0306D903EB4E
:1037A000071003F010F9003018BF0120B8F1010331
:1037B000D3F1000858EB030894F86E302BB1B3F145
:1037C000090218BF0122012101E01946012294F8E3
:1037D000AF7080EA080547EAC010002981EA0806B0
:1037E00040EAC80894F8B0000CBF0027802738438F
:1037F00040EAC2008D4214BF02210021014394F827
:10380000B10084F8B010964214BF2021002101437A
:10381000954214BF0225002541EA050284F8B12033
:1038200003330322A4F8D82084F8AF80002284F860
:103830006E30A4F8DA20BDE8F08100BF406A0020B5
:103840009CBE0008BB6A0020EF6A0020F8B51D4C42
:10385000054604EB0016304603F0B5F820281ED9C3
:10386000D4F8DC30132B1AD905F1380354F823307F
:10387000052B14D904F1AE0504F1CF07304603F04F
:103880006DF805F8010F0023BD4205F8283CF5D17D
:103890002123A4F8D8300023A4F8DA30F8BD00239F
:1038A000254485F8E830084B03F1210213F8011F85
:1038B00083F8621093424FF0000183F83A10F5D17B
:1038C000E6E700BF406A00208C6A002030B51F4B3D
:1038D0001F4A03F1200153F8044B8B4242F8044B7A
:1038E000F9D11B780001137040F00900194BC0B2E8
:1038F00033F81020184BD1B293F85940920A24F0B3
:103900003F0444EA900093F85A4083F8590004F0C9
:103910000F04880800F0300544F040042C4383F87D
:103920005A4093F8604000F00F0024F00F04204349
:1039300083F8600093F8610002F03C0200F003009D
:1039400040EA8111114383F8611030BDBD89000840
:103950008D6A0020048A0008406A002070B50021AA
:1039600006460C22134804F06DF90023124A134C4A
:103970009D5CD91003F00702715CA25C11424FEA12
:10398000E5020F4905F0070505D08818645D90F839
:103990007B00044305E08818645D90F87B0020EA12
:1039A000040401330A44442B82F87B40DED100201A
:1039B00070BD00BFBB6A0020158C0008808900081C
:1039C000406A00202DE9F04FA5B002900391002439
:1039D000A74D039B029E1A5BD5F858332946134422
:1039E000C5F85833B5F85C330133A5F85C33325B66
:1039F0002B79D20B934209D02B68B3F5004F2ABF25
:103A00006FF4CC7C03F2991363442B602E68984BBF
:103A100006F54C503330B0F5803F2A7101D2186062
:103A20007AE3A6F54C40CD3818605879012853D078
:103A300003D3022800F0CA826EE3996849000AB1F4
:103A400041F001019960AD688A4825F07F456840E2
:103A500002F062FF0228864E10D8874801F09EFAD5
:103A600006F10C000021532204F0ECF80023336728
:103A7000C6F85833A6F85C33012395E27F486840C6
:103A800002F04AFF0546002840F046837C4801F0DA
:103A900085FA0120FFF724FE7A4B012283F81D23CB
:103AA000794A06F10C0310685168C6F8585303C3ED
:103AB0009068A6F85C531860A3F10800FEF742FB7B
:103AC00006F10C0029460E2204F0BCF84FF4165300
:103AD00073673567022367E2986840009860002AA0
:103AE00000F0218340F001009860186F674EC20813
:103AF000134400F00700305C1B7B03430A4413733C
:103B00002B6F0133B3F5257F2B6740F0058300232E
:103B10005F48CA18167B185C01337040532B107332
:103B2000F6D1002300200FAA98540133542BF9D169
:103B3000584B01EBE002127BD6070FD513F80E6C41
:103B400024AF3E4413F80D7C4FF0800C2CFA07F79D
:103B500016F854CC47EA0C0706F8547C97070FD5A3
:103B600013F80C6C24AF3E4413F80B7C4FF0800C20
:103B70002CFA07F716F854CC47EA0C0706F8547CE1
:103B800056070FD513F80A6C24AF3E4413F8097C8E
:103B90004FF0800C2CFA07F716F854CC47EA0C07C4
:103BA00006F8547C17070FD513F8086C24AF3E4471
:103BB00013F8077C4FF0800C2CFA07F716F854CC5A
:103BC00047EA0C0706F8547CB0F5247F09D100229F
:103BD000EA67C5F88020C5F88420C5F88820AA6760
:103BE0005AE0D6060FD513F8066C24AF3E4413F8FE
:103BF000057C4FF0800C2CFA07F716F854CC47EAF6
:103C00000C0706F8547C97060FD513F8046C24AF04
:103C10003E4413F8037C4FF0800C2CFA07F716F89B
:103C200054CC47EA0C0706F8547C56060FD513F817
:103C3000026C24AF3E4413F8017C4FF0800C2CFA48
:103C400007F716F854CC47EA0C0706F8547C170619
:103C50000BD51A7824AE32445E78802727FA06F610
:103C600012F8547C3E4302F8546C0830103360E77D
:103C700028190020507655000A94000868B4AA005C
:103C80002C940008CCA3002009960008778C00082B
:103C90007F8C0008E88C000824AF07EBE20313F8E0
:103CA000541C02F007008023C340402525FA00F091
:103CB00019420CBF0023012301420CBF0021012146
:103CC00083F0010581F0010005EB0009181801904F
:103CD000B64803EB010CD0F87C806918D0F88460FA
:103CE000856F0CEB080A09EB06070091E9085745B8
:103CF000D4BF0497CDF810A0BA4501F1220A05F00F
:103D0000070300EB8A0A07DAA94F17F803B0DAF8BD
:103D100004700BEA070706E0A64F17F803B0DAF8BD
:103D200004704BEA07076644C844B045D4BFCDF8D9
:103D300014800596B04501F14C06CAF8047000EBFA
:103D4000860004DA9A4EF75C46683E4003E0994EDE
:103D5000F75C46683E43954F4660D7F88080009EEA
:103D6000D7F888C0019846446044B042D4BF06905A
:103D7000069601F17609864207EB89093E4607DA85
:103D80008B4810F803A0D9F804000AEA000006E006
:103D9000884810F803A0D9F804004AEA0000C9F8DE
:103DA00004000198A0318044009806EB810184440E
:103DB000C445D4BFCDF81CC0CDF81C80E0451BDA4B
:103DC0007B48C05C4B6803404B60049B0232FB673E
:103DD000059B0135C7F88030069BB2F5257FC7F8F3
:103DE0008430079BBD67C7F888307FF455AF002348
:103DF00040F24912194604E06E48C05C4B68034328
:103E0000E2E703294CD8DFE801F0020F1D34694DC9
:103E100002F007002D5CD01006EB8000D0F88C007B
:103E2000054218BF02211AE0624D02F00701685CEA
:103E3000D11006EB8101D1F83411084214BF0221E0
:103E4000002122E05B4802F00701405CD11006EB44
:103E50008101D1F8DC11084214BF03210121544F24
:103E600003F0070506EBD3007F5D90F82C533D402F
:103E700013E0504D02F007002F5CD01006EB8000DD
:103E8000D0F88402074208BF012106EBD30003F0FB
:103E90000707EF5D90F82C533D4380F82C53013316
:103EA00012F1FF32ADD2002202F1100001320023E4
:103EB0006F46292AC355F7D1C3F5A47201323D4894
:103EC00002F0070106EBE202415C92F82C2311425A
:103ED00009D0012003F0070100FA01F1DA0804AD6E
:103EE000A85C0143A9540133B3F5A57FE4D14FF099
:103EF000FF32002304AFF85C2F495040C0B231F8C4
:103F00001010C2F3072201335140272B0A46F1D18A
:103F1000CB439DF83710DAB2914209D19DF83810A1
:103F2000C3F307235A1A53425341002B3CD001E0FC
:103F3000002339E00120FFF7D3FB204B012283F857
:103F40001D23B6F85C231E4B9AB118491B78D1F893
:103F50005813012BB1FBF2F2C2F307218DF839108F
:103F60008DF83A200FD8174B1B7863B104A82B218A
:103F700007E01B78012B06D8124B1B781BB104A855
:103F80002921FEF7F9F800250F4829460E22C6F828
:103F90005853A6F85C5303F055FE022373714FF497
:103FA000165335677367B7E07371B5E028190020C1
:103FB000029200086F8C00080A920008CCA300202F
:103FC000A8090020C202002034190020986840008F
:103FD0009860002A00F0B18040F001009860186FEE
:103FE0005B4EC208134400F00700305C1B7B0343A8
:103FF0002F6FD5F8088057481144013788EA000030
:104000000B732F6702F088FC0128534E21D85348C8
:1040100000F0C4FF0020FFF763FB514B002683F83C
:104020001D63504B1B78012B10D84F4B1B786BB185
:10403000E02303218DF83C308DF83D1013238DF8DB
:104040003E300FA8494B9847494B1E6000236B71C7
:1040500062E05C2F0ED9474828F07F43584002F0B9
:104060005BFC022806D8602333674FF4165373674E
:10407000012700E000272B6F602B16D1AFB9012676
:104080006FF07F403B4BF040F34000EA080058409F
:1040900002F042FC02285FFA86F903D8C9F16003F6
:1040A0002B6702E00136042EEAD16E6F2A48013EEA
:1040B0006E67C6B9304800F071FF3046FFF710FB5D
:1040C000274B83F81D63274B1B78012BBED8264B4B
:1040D0001B78002BBAD0E02303218DF83C308DF8FB
:1040E0003D101223ABE7026F602A15D14FB1552264
:1040F00042752D2282751622C2750C30FEF722F809
:1041000003E00C300C21FDF7EDFF1C4800210E22CE
:1041100003F098FD00232B670234042C7FF458AC85
:1041200025B0BDE8F08F186F154EC208134400F09B
:104130000700305C1B7B0340E0E4186F104EC208A0
:10414000134400F00700305C1B7B034050E700BFC6
:10415000778C00085E13AAAA281900204D94000845
:10416000CCA30020A8090020C2020020F9020020F0
:104170001800274268B4AA006D9400083419002082
:10418000019600085C2810B504466DD011D80328AC
:1041900038D007D801281DD0022871D13D4800F041
:1041A000FDFE6AE0052847D038D35B2868D13A483D
:1041B0005BE05F2854D005D85D2853D05E285FD1DE
:1041C000364852E0622849D0632845D0602857D14C
:1041D00033484AE0334800F0E1FE02F0D5F801F040
:1041E000B3FF00F077F802F089F802F04BF8FFF720
:1041F0001DF92D4B0022A3F8E823A3F8EA2383F846
:10420000EC2340E0294800F0C9FE02F0BDF801F0BF
:104210009BFF00F05FF802F0A7F8E6E7244800F003
:10422000BDFE02F0B1F801F08FFF00F053F802F08C
:104230009BF802F063F8DAE71E4800F0AFFE02F0E8
:10424000A3F801F081FF00F045F802F08DF802F0CC
:1042500055F802F017F8CCE7174806E0174804E0D5
:10426000174802E0174800E0174800F097FE02F0F8
:104270008BF801F069FF00F02DF802F075F8B2E755
:10428000124800F08BFE124B1C70BDE8104001F08C
:10429000D5BF00BF95940008CD9500086195000832
:1042A0002A950008A5940008E8830020B894000827
:1042B000D2940008E2940008F394000810950008D6
:1042C0004595000886950008A8950008F095000817
:1042D000A80900201B4B002241F278501A5241F2EB
:1042E00076501A5241F27E501A5241F274501A52CC
:1042F00003F5AC50026041F295501A5441F29650C9
:104300001A5441F29A501A5441F27A5042F20F7103
:10431000A3F82427A3F82227A3F82A27A3F8202705
:10432000C3F82C2783F8412783F8422783F84627D0
:10433000A3F826271A5241F27C52A3F82817995263
:10434000704700BFD821002070B5414C96B0204680
:1043500002F039FB18B9B4F87035002B75D0B4F8F9
:1043600070553B4835BB3B4B1B7883B9B0F874257F
:1043700099B2914205D22144772081F8C0000133DF
:10438000F6E7A4F870250023A4F8723512E002F0D5
:10439000E5FA0646EBB2B342F5D22D4802F0DEFA5A
:1043A000B4F8703501355A1C2344A4F8702583F8FD
:1043B000C000EFE7B4F87035002B46D0FFF710F8D7
:1043C0000546142D41D9B4F872355A1C2344A4F87B
:1043D000722593F8C020002302F0C001802908D084
:1043E000C02903D041B94FF65C6107E040F2EC41CF
:1043F00004E04FF4D27101E04FF614312DF80310B0
:1044000002339200082BD2B2E6D11348694602AAC1
:10441000042302F09FFF114802A90CAA142303F001
:1044200083F90CA9142200230420FEF739FBB4F809
:104430007215B4F87025143D9142ADB2044BC0D34F
:104440000022A3F87225A3F8702516B070BD00BF36
:104450002C6B0020AA0900203C6B0020486B002038
:104460002DE9F047AA4CB6B0204602F0ACFA20B9CC
:10447000B4F89C32002B00F0B2816289636892B27A
:104480009A5CA34D02F0FF03002A40F02781B5F8A3
:104490009C62002E40F068819E4B1B786BB9B5F88A
:1044A000A02299B2914205D22144AA2081F8440069
:1044B0000133F6E7A4F89C220CE1284602F04EFAFC
:1044C0003546934802F04AFA0DF805000135292DCA
:1044D000F7D1002200230BA920AE5354B1180132AA
:1044E000532A8B70F6D11A4619461DF803801746D9
:1044F00018010A4600250121A94018EA010F0CBF46
:104500000021012101EB070C17440F44FF070CF0B9
:10451000010C0FD5DFF8089200F0070719F807A083
:104520000DF1D80909EBD00717F8AC9C4AEA090944
:1045300007F8AC9CBCF1000F11D000F1010C0DF19B
:10454000D80909EBDC07DFF8D8910CF0070C19F853
:104550000C9017F8ACCC49EA0C0C07F8ACCC013540
:10456000082D00F1020002D017460A46C3E70133C6
:104570002A2BBAD1684B002136A800EBD10212F8E1
:10458000AC2C10060ED513F80D7C4FF0010C0CFA74
:1045900007F713F80E0C0DF1820515F800C047EA75
:1045A0000C072F5455060ED513F80B7C4FF0010C59
:1045B0000CFA07F713F80C0C0DF1820515F800C082
:1045C00047EA0C072F5490060ED513F8097C4FF0DC
:1045D000010C0CFA07F713F80A0C0DF1820515F817
:1045E00000C047EA0C072F54D7060ED513F8077CF6
:1045F0004FF0010C0CFA07F713F8080C0DF18205C7
:1046000015F800C047EA0C072F54B1F5247F41D0BC
:1046100015070ED513F8057C4FF0010C0CFA07F7BF
:1046200013F8060C0DF1820515F800C047EA0C07D7
:104630002F5450070ED513F8037C4FF0010C0CFAE1
:1046400007F713F8040C0DF1820515F800C047EACE
:104650000C072F5497070ED513F8017C4FF0010C6F
:104660000CFA07F713F8020C0DF1820515F800C0DB
:1046700047EA0C072F54D50709D55D78012707FABB
:1046800005F51A780DF18200875C3D4385540831A9
:10469000103371E700232149F2189078595C0133F7
:1046A0004140532B9170F6D1EA238DF88030B4F855
:1046B0009C22A6238DF881300023D118F05C89B2AA
:1046C00001332144552B81F84400F6D1104B55326B
:1046D000A3F89C220023A4F89E3245E0012B21D1AF
:1046E000B5F89C32002B3FD1284602F037F90C2553
:1046F000B4F89C620648731CA4F89C3202F02EF9B0
:10470000013D264415F0FF0586F84400F0D1E1E7AD
:10471000803E0020AA0900208A960008159600080D
:104720000C9C0008022B1FD1B5F89C32E3B9284637
:1047300002F014F9B5F89C3203F1120080B20022A5
:10474000284E9D18965DADB201322544062A2649B1
:1047500085F84460F4D106339BB28342EFD1A1F8CF
:104760009C320023A1F89E32B4F89C32002B36D044
:10477000FEF736FE0546282D31D9B4F89E325A1C74
:104780002344A4F89E2293F844000122002302EA65
:10479000000191420CBF4FF6B74640F249360BA9D3
:1047A000CE5202335200102BD2B2F0D10F4820AAC1
:1047B000082302F0CFFD20A9282200230120FEF7C4
:1047C0006FF9B4F89E12B4F89C22283D9142ADB224
:1047D000054BD0D30022A3F89E22A3F89C2236B02A
:1047E000BDE8F08770960008803E0020903E0020D3
:1047F00030B5484CABB0204602F0E5F820B9B4F82B
:104800008435002B00F08380B4F88435ABBB424B79
:104810001A78FAB93F4BB3F8883591B2994205D26C
:1048200021445F2081F8D4000132F6E7E2185721D5
:1048300082F8D4105A1C92B22244752182F8D41006
:10484000DA1C02339BB2A4F884252344FD2283F8AA
:10485000D4200FE030252F4802F080F8B4F88435DA
:10486000013D5A1C15F0FF052344A4F8842583F864
:10487000D400F0D10023A4F88635B4F88435002B99
:1048800045D0FEF7ADFD0546282D40D9B4F8863554
:104890005A1C2344A4F8862593F8D420002302F060
:1048A000C001802908D0C02903D039B94FF60B7157
:1048B00006E040F2DF2103E0F52101E04FF621514F
:1048C0002DF8031002339200082BD2B2E7D113481F
:1048D000694602AA042302F03DFD114802A916AA66
:1048E000282302F021FF16A9282200230520FEF725
:1048F000D7F8B4F88615B4F88425283D9142ADB2B6
:10490000044BC1D30022A3F88625A3F884252BB03D
:1049100030BD00BF88640020AA09002098640020F0
:10492000A4640020F0B5574C93B094F84C30002BA1
:1049300000F0A580B4F8D820002A52D1013B042B06
:1049400048D8DFE803F003470E0813000020FEF705
:104950007DFF042343E001200021FEF7CDFE032369
:104960003DE00120FEF772FF022338E0464B1B7842
:10497000622B0DD1454B03F121025F2103F8011F8A
:1049800093424FF0000103F8281CF6D121231BE0CD
:104990005F2B1BD13D4BDA1D552103F8011F9342BC
:1049A0004FF0000103F8281CF6D15F2384F8B630DD
:1049B000374BDA1DFF2103F8011F93424FF000012E
:1049C00003F8281CF6D10F23A4F8D8300023A4F84C
:1049D000DA3006E000200121FEF78EFE012384F884
:1049E0004C30B4F8D830002B49D0FEF7F9FC06461D
:1049F000142E44D9B4F8DA30E11891F8AF2001331D
:104A000091F88770A4F8DA30002302F0C001802901
:104A100001AD08D0C02903D041B94FF63A6107E093
:104A200040F2525104E04FF4E37101E04FF6AE2141
:104A3000E95202339200082BD2B2E6D100211422AF
:104A400003A803F0FFF81348294608AA04238DF8A9
:104A5000167002F07FFC08A9142203AB0220FEF7B7
:104A60001FF8B4F8DA10B4F8D820143E9142B6B268
:104A7000044BBDD30022A3F8DA20A3F8D82013B04A
:104A8000F0BD00BF406A0020A8090020EE6A0020A7
:104A9000F66A0020606A002070B53F4C8CB0B4F814
:104AA000EC5455B9204601F08EFF00284BD104E0AC
:104AB000A4F8EC240023A4F8EE34B4F8EC34002B72
:104AC00067D0FEF78DFC0546142D62D9B4F8EE349C
:104AD0005A1C2344A4F8EE2493F83C20002302F04F
:104AE000C001802908D0C02903D041B94FF63A61EE
:104AF00007E040F2525104E04FF4E37101E04FF659
:104B0000AE212DF8031002339200082BD2B2E6D169
:104B10002248694602AA042302F01CFC02A91422BE
:104B200000230220FDF7BCFFB4F8EE14B4F8EC2427
:104B3000143D9142ADB2184BC6D30022A3F8EE2427
:104B4000A3F8EC2425E0164B1B78B3B12B46E218F2
:104B500001335F21482B82F83C10F8D100250E4E1E
:104B6000304601F0FBFE63190135212D83F8630007
:104B7000F5D14823A6F8EC349CE7D4F8F024591C6E
:104B80009BB2934294D223445F2083F83C000B46AF
:104B9000F5E70CB070BD00BFFCA600200CA70020FC
:104BA000AA0900202DE9F04FA7B004900591002537
:104BB000BA4F0499059B4A5B595B3B683E1D0B4409
:104BC0003B603388B64C0133338036F8643C12F4D2
:104BD000004F04EB83035968DFF8F0924FEA41017C
:104BE00018BF41F001015960B9F80030A24603F145
:104BF0000C0124F811202278012A40F06F81B9F8C5
:104C00000810B9F80A20914206D28B4207D393428A
:104C100005D8FEF7DBF902E08B42F8D3F9E7DFF8BD
:104C2000B082B9F80020B8F800309A4240F0928182
:104C3000B8F80E30052B16D1B8F8023003F65F1223
:104C400092B2B2F5166F28BF03F1FF32A9F808201F
:104C50005A1C92B2B2F5166F2ABFA3F65F13A9F8D9
:104C60000A20A9F80A308F4B4CF280124FF47A5088
:104C700019884FF4F0798646944601F10C033AF90D
:104C80001330002B0EDD0FFA8CFC0FFA8EFE6345FD
:104C9000A8BF9C467345B8BF9E461FFA8CFC1FFAFE
:104CA0008EFE09E000B212B28342B8BF18469342AA
:104CB000A8BF1A4680B292B24B1D9BB2B3F5166FD5
:104CC00009F1FF3928BFA1F65B111FFA89F928BF46
:104CD0008BB2B9F1000F01D01946CEE70FFA8CF173
:104CE0000FFA8EFE00B212B2714402444910521003
:104CF00001EB020B4FEA6B0B1FFA8BFCCBEB010BAA
:104D00001FFA8BFB0FFA8BF3009367480FFA8CF3B3
:104D1000CDF80CC0FDF74EF8644A61491378DDF810
:104D20000CC0632B12D10AEB090309F1020903F548
:104D30009752B9F1200F03F59853A2F810C0A3F8C9
:104D400012B0F0D1594B00221A700EE003F6781021
:104D500021F810C003F688100133DBB201EB4001EB
:104D60000F2BA1F802B01370ECD8DFF868B1002364
:104D7000ABF80030ABF822301A469E460AEB02012F
:104D800001F5975001F598511030123100880988CB
:104D9000023203448E44202A9BB21FFA8EFE03D0B7
:104DA0009BB21FFA8EFEE9E7DFF82C914EF30B1E43
:104DB00043F30B139AB21FFA8EF3ABF80020A9F855
:104DC00000303B4839F9521C12B21BB2FCF7A6FF67
:104DD000BBF9003039F8560C0093B9F900304FF4A4
:104DE000F071019307AA082301F04CFB39F846AC97
:104DF0000AF1FF3A1FFA8AFA29F846ACBAF1000F15
:104E00002BD12C4800F0CAF85046FEF769FC2A4B1B
:104E100083F81DA3294B1B78032B00D08BB9284B9B
:104E20001B7873B1E0238DF81830212303218DF80E
:104E30001A3006A8234B8DF819109847224B0022F0
:104E40001A6042F20F72A8F80020184A002363216A
:104E50002370117002F8463C1CE0BAF10403D3F150
:104E6000000A5AEB030A33888DF81CA05BB13A683C
:104E700007A8B2FBF3F3C3F307228DF895208DF852
:104E800096307B2101E007A87921FDF7C9F80023BE
:104E90003B60338049F84A3C5CE000BFDC83002083
:104EA000A470002080830020A49B0008D8830020E9
:104EB000C49B0008EB9B0008CCA30020A80900209D
:104EC000E8010020F9020020180027427E8300201C
:104ED00082830020B4830020D6830020FEF776F87A
:104EE00088B199F8143073B901203B603380FEF724
:104EF000F7FB244B012283F81D23632389F85A30E2
:104F0000052389F8143099F8143013B11E4A013B77
:104F1000137099F81430012B1CD11C4A138803F626
:104F20005F1189B2B1F5166F28BF03F1FF315180CF
:104F3000591C89B2B1F5166F154A24BFA3F65F1349
:104F400013804FF0010323704FF0000338BF11802E
:104F500089F814300F4B02351A88013292B2B2F53B
:104F6000166F28BF00221A800B4B1A88013292B2AA
:104F7000042A88BF0022042D1A807FF419AE27B0BE
:104F8000BDE8F08FCCA30020928300208483002012
:104F9000888300207E8300207C83002010B5114B85
:104FA000A2B093F80231D3B1E0238DF80430F1239D
:104FB0008DF806300023DAB2845CD91CC9B2013303
:104FC00024B122AA114401F8844CF4E7064B01A84D
:104FD0008DF805109847054B1C6001F0CDFB22B001
:104FE00010BD00BF68630020F902002018002742AE
:104FF0002DE9F04FD5B003908B460026039BDFF8D8
:10500000C0829A5B3BF806109E4DD8F8003005F53B
:1050100009570B44C8F800303B88A7F168090133F1
:105020003B80B9F80030100405EB83035968964CB7
:105030004FEA410148BF41F001015960238803F163
:105040000C0125F811202A78012A02D0022A79D0F1
:1050500038E121896289914206D28B4207D393427B
:1050600005D8FDF7BDFE02E08B42F8D3F9E72288B0
:1050700063899A4240F06081844F3A887B889A42E3
:1050800042D037F80A0C4FF4C671FCF7EFFE8048A7
:10509000B7F90010B7F92E20B7F95030FCF73EFEF3
:1050A000B7F92E3037F80A0C0093B7F950300DF1EC
:1050B000100801934FF4C6710823424601F078F9B5
:1050C000012388F80030734B1B7813F0FB031BD1CE
:1050D000714A1278C2B1E0228DF8742030228DF826
:1050E00075308DF876201DAA1A4418F80310013384
:1050F000642BD170F7D16721684B1DA88DF875100E
:105100009847674B00221A60664B1B8803F586524E
:105110001F3292B2B2F5875F28BF03F1FF322281BE
:105120005A1C92B2B2F5875F22BFA3F586531F3B8C
:1051300063814FF002032B705B4B38BF628100220A
:105140001A60F9E021896289914206D28B4207D325
:10515000934205D8FDF744FE02E08B42F8D3F9E70D
:10516000DFF858A12188BAF80020914240F0E4808D
:10517000BAF81020052A15D1BAF8082002F5865190
:105180001F3189B2B1F5875F28BF02F1FF3121815C
:10519000511C89B2B1F5875F25BFA2F586521F3A2F
:1051A00061816281414C4FF458712088FCF75EFEAA
:1051B000BAF908103E48B4F93620B4F95830FCF773
:1051C000ADFDB4F9363020880093B4F958304FF46F
:1051D000587101931DAA082301F0EAF8638A013B84
:1051E0001FFA83FAA4F812A0BAF1000F29D13148AE
:1051F000FFF7D4FE5046FEF773FA264B2E4A1B7873
:1052000082F81DA313F0FB0710D1234B1B786BB161
:10521000E0238DF81030322303218DF8123004A8DA
:105220001E4B8DF8111098471D4B1F60234A42F208
:105230000F710023118063212B7082F85810937432
:105240001CE0BAF10402534253418DF874303B889C
:1052500063B1D8F800201DA8B2FBF3F3C3F3072213
:105260008DF84D218DF84E31DB2101E01DA8D921AB
:10527000FCF708FF0023C8F800303B80C4F80E306C
:105280005AE000BF24410020FE6200200A63002093
:10529000149C0008A8090020F4020020F902002054
:1052A000180027420C6300201063002002630020D6
:1052B000429C0008709C0008CCA3002004630020DE
:1052C00060630020FDF78CFD80B1237E73B901205F
:1052D000C8F800303B80FEF703FA244B012283F824
:1052E0001D23632384F85E3005232376237E13B1C8
:1052F0001F4A013B1370237E012B1DD11D4A1388C9
:1053000003F2BB7189B2B1F5875F28BFA3F62511FF
:1053100022F8041C03F2BD7189B2B1F5875F164A09
:1053200024BFA3F6231313804FF001032B704FF01B
:10533000000338BF11802376104B02361A880132E1
:1053400092B2B2F5875F28BF00221A80B9F8002018
:105350000B4B013292B2042A88BF0022042E1A801D
:105360007FF44CAE55B0BDE8F08F00BFCCA3002059
:10537000166300200A63002008630020FE620020FC
:10538000FC6200202DE9F043074691B088460026D4
:10539000A84C38F80610D4F8743FBA5B0B44C4F834
:1053A000743FB4F8783F12F4004F03F10103A4F8FE
:1053B000783FB4F8163FA14604EB430359889D4D4E
:1053C0004FEA410189B218BF41F001015980B4F898
:1053D000183F04EB4301CA822278012A40F03E8143
:1053E000B5F8201FB5F8222F914206D28B4207D381
:1053F000934205D8FEF7ACF802E08B42F8D3F9E708
:10540000B4F8181FB4F81C2F8A4B914240F0688101
:10541000B3F8282F062A16D1B3F81E2F02F27F7197
:1054200089B2B1F5F06F28BF02F1FF31A3F8201F58
:10543000531C9BB2B3F5F06F2ABFA2F27F72A4F89F
:10544000223FA4F8222F4CF280124FF47A50B4F885
:105450001A1F4FF0C00C0546964609EB4103B3F9FD
:105460001630002B0CDD0FFA8EFE2DB27345A8BF4F
:105470009E46AB42B8BF1D461FFA8EFEADB209E094
:1054800000B212B28342B8BF18469342A8BF1A4670
:1054900080B292B201F10A039BB2B3F5F06F0CF146
:1054A000FF3C28BFA1F276711FFA8CFC28BF8BB29B
:1054B000BCF1000F01D01946CFE70FFA8EF12DB2E3
:1054C00000B212B229440244491052108D186D10D6
:1054D0001FFA85F94D1BADB22BB2009356480FFA57
:1054E00089F3FCF767FC94F8702F524B632A0CD1B8
:1054F00003F62A7203F64A7322F8029F9A425584F1
:10550000FAD1002384F8703F0BE003EB4201013233
:10551000D2B20F2AA1F82C9FA1F84E5F83F8702F0A
:10552000EFD8464B0022A4F84C2FA4F86E2F03F1BD
:105530002000114633F8025F2A445D8C83422944DF
:1055400092B289B202D092B289B2F3E741F30B135F
:1055500042F30B1292B29BB2A4F84C2FA4F86E3F08
:105560003748B4F91E1F12B21BB2FCF7D7FBB4F9CF
:105570004C3FB4F81A0F0093B4F96E3FC021019369
:1055800003AA0823FDF77AFFB4F8285FDFF8A49098
:10559000013DADB2A4F8285F5DBB2A48FFF7FEFCD1
:1055A0002846FEF79DF8284B83F81D53274B1B78A0
:1055B000052B00D08BB9264B1B7873B1E0238DF8F7
:1055C0000830412303218DF80A3002A8214B8DF8C1
:1055D00009109847204B00221A6042F20F720023F4
:1055E000A4F81C2F6322237084F8702F84F82A3FBC
:1055F0001DE06B1F5D425D41B9F8783F8DF80C509E
:1056000063B1D9F8742F03A8B2FBF3F3C3F30722F5
:105610008DF83D208DF83E30332101E003A8312183
:10562000FDF75AF90023C4F8743FA4F8783FC4F892
:10563000243F55E0AC090020919C0008D6180020BA
:10564000B29C0008DA9C0008CCA30020A809002026
:10565000F7020020F902002018002742FDF778FF2A
:1056600098B195F82A3F83B90120C5F8743FA5F891
:10567000783FFEF735F8294B012283F81D23632379
:1056800085F8703F052385F82A3F94F82A3F1BB11F
:10569000234A013B82F82A3F94F82A3F204A012BF3
:1056A0001ED1B2F81E3F03F27F7189B2B1F5F06FDF
:1056B00028BF03F1FF31A2F8201F5A1C92B2B2F5A5
:1056C000F06F24BFA3F27F73A4F8223F4FF00103D1
:1056D00023704FF0000338BFA4F8222F84F82A3F2C
:1056E000B4F8182F0E4B013292B2B2F5F06F28BF0A
:1056F0000022A3F8182FB4F8162F094B013292B2EA
:10570000092A06F1020688BF0022042EA3F8162FEC
:105710007FF43EAE11B0BDE8F08300BFCCA3002003
:10572000AC0900202DE9F04781468CB08A464FF045
:105730000008B64C39F80800B4F8563B3AF808109F
:1057400004EB43029082A2F87C1BB4F8542B0004B3
:1057500054F822104FEA410148BF41F0010144F8DA
:10576000221094F8782B0AB901201BE0A74AB2F85E
:10577000580B00F29F5189B2B1F5B46F00F10102EC
:1057800092B224BF00F1FF3189B2B2F5B46F24BFE9
:10579000A0F29F5292B2914207D28B4208D3934219
:1057A00006D80020FDF7D8F902E08B42F7D3F8E7DE
:1057B000B4F8562BB4F85C3B944D934240F0018111
:1057C000B5F9662BB5F9647BB5F96C6B1744B5F97F
:1057D000682B03F212301744B5F96A2B80B21744D4
:1057E000B5F96E2BB0F5B46F1644B5F9702BC7F34D
:1057F0008F071644B5F9722B28BFA3F28E201644EA
:10580000C6F38F0695F8752B3FB236B28DF80C2093
:1058100028BF80B2082300970196842103AA00F0D4
:10582000A9FC94F8753B794D402B78D10DF10A0213
:105830000DF10B0302A80DF10D0100F0F1FE9DF832
:105840000A2095F8773B9A4240F0B68000239DF8F5
:105850000C2085F8763B85F8793B9DF80B301A4390
:105860008DF80C200A2B4DD8DFE803F0302C434C88
:105870004C4C0617174C170033466548B4F9581BB3
:105880003A46FCF74BFA03A8FCF7F6FF022384F82C
:10589000783B002384F87A3B8EE094F8783B5B4DAC
:1058A000022B40F0898033465A48B5F9581B3A46D6
:1058B000FCF734FA03A8FCF7DFFF9DF80B3085F8FE
:1058C0007A3B79E05448B4F9581B07E094F8783BE8
:1058D000012B0AD14D4B5148B3F9581B3A46334678
:1058E000FCF71CFA03A8FCF7C7FF012384F8783BF8
:1058F00062E094F8783B012B5ED1444B4848B3F901
:10590000581B02E04748B4F9581B3A463346FCF7A7
:1059100005FA03A8FCF7B0FF00F016FC4CE0202BC2
:1059200012D133464048B5F9581B3A46FCF7F6F910
:1059300003A8FCF7A1FF012385F8783B002385F835
:10594000763B85F8793B37E095F8783B63B195F87D
:10595000763B0133DBB20C2B85F8763B04D9012072
:10596000FCF730FC00F0F0FB94F8782B274B012A71
:1059700016D193F8792B042A06D920228DF80C2011
:10598000002283F8792B05E00132D2B283F8792B1B
:105990008DF80C20012003A92222FCF739FC0BE032
:1059A000022A09D193F87A3B33B143F0400303A8AC
:1059B0008DF80C30FCF760FF0023C4F8603B84F8DE
:1059C000753BB4F8562B114B013292B2B2F5B46F5D
:1059D00028BF0022A3F8562BB4F8542B0B4B0132EE
:1059E00092B2042A08F1020888BF0022B8F1040F1D
:1059F000A3F8542B94F8780B7FF49BAE003018BFBB
:105A00000120FDF76DFE0CB0BDE8F087188800207E
:105A1000FC9C00082D9D00085F9D0008919D0008DA
:105A2000C69D0008FC9D0008269E00084FF080439C
:105A300037B51A69D20753D56FF001021A610023F6
:105A40008DF805304FF40063ADF80630254B1B6828
:105A5000002B45D0244B01241C6003F500431C603F
:105A60000DF106010DF10502204800F017FEBDF80A
:105A700006201F4B1F489A6003F53043D96C9DF8F0
:105A8000052089B2ADF8061000F02EFE1A4BDD6C31
:105A90001A4B93F8382002F0FF0112B183F8394015
:105AA00019E0988E1A6B80B2ACB222F810409A8E30
:105AB000988D013292B29A869A8E92B2904298BF95
:105AC0009986998EDA8E89B292B2914203D10C4AAC
:105AD000012182F83810D3F824230132C3F824239B
